{
  "_format": "hh-sol-artifact-1",
  "contractName": "BlockchainStories",
  "sourceName": "contracts/BlockchainStories.sol",
  "abi": [
    {
      "inputs": [],
      "stateMutability": "nonpayable",
      "type": "constructor"
    },
    {
      "anonymous": false,
      "inputs": [
        {
          "indexed": true,
          "internalType": "address",
          "name": "owner",
          "type": "address"
        },
        {
          "indexed": true,
          "internalType": "address",
          "name": "approved",
          "type": "address"
        },
        {
          "indexed": true,
          "internalType": "uint256",
          "name": "tokenId",
          "type": "uint256"
        }
      ],
      "name": "Approval",
      "type": "event"
    },
    {
      "anonymous": false,
      "inputs": [
        {
          "indexed": true,
          "internalType": "address",
          "name": "owner",
          "type": "address"
        },
        {
          "indexed": true,
          "internalType": "address",
          "name": "operator",
          "type": "address"
        },
        {
          "indexed": false,
          "internalType": "bool",
          "name": "approved",
          "type": "bool"
        }
      ],
      "name": "ApprovalForAll",
      "type": "event"
    },
    {
      "anonymous": false,
      "inputs": [
        {
          "indexed": true,
          "internalType": "address",
          "name": "previousOwner",
          "type": "address"
        },
        {
          "indexed": true,
          "internalType": "address",
          "name": "newOwner",
          "type": "address"
        }
      ],
      "name": "OwnershipTransferred",
      "type": "event"
    },
    {
      "anonymous": false,
      "inputs": [
        {
          "indexed": true,
          "internalType": "address",
          "name": "from",
          "type": "address"
        },
        {
          "indexed": true,
          "internalType": "address",
          "name": "to",
          "type": "address"
        },
        {
          "indexed": true,
          "internalType": "uint256",
          "name": "tokenId",
          "type": "uint256"
        }
      ],
      "name": "Transfer",
      "type": "event"
    },
    {
      "inputs": [
        {
          "internalType": "address",
          "name": "to",
          "type": "address"
        },
        {
          "internalType": "uint256",
          "name": "tokenId",
          "type": "uint256"
        }
      ],
      "name": "approve",
      "outputs": [],
      "stateMutability": "nonpayable",
      "type": "function"
    },
    {
      "inputs": [
        {
          "internalType": "address",
          "name": "owner",
          "type": "address"
        }
      ],
      "name": "balanceOf",
      "outputs": [
        {
          "internalType": "uint256",
          "name": "",
          "type": "uint256"
        }
      ],
      "stateMutability": "view",
      "type": "function"
    },
    {
      "inputs": [
        {
          "internalType": "uint256",
          "name": "tokenId",
          "type": "uint256"
        }
      ],
      "name": "changedAfterMint",
      "outputs": [
        {
          "internalType": "bool",
          "name": "",
          "type": "bool"
        }
      ],
      "stateMutability": "view",
      "type": "function"
    },
    {
      "inputs": [
        {
          "internalType": "uint256",
          "name": "tokenId",
          "type": "uint256"
        }
      ],
      "name": "getApproved",
      "outputs": [
        {
          "internalType": "address",
          "name": "",
          "type": "address"
        }
      ],
      "stateMutability": "view",
      "type": "function"
    },
    {
      "inputs": [
        {
          "internalType": "address",
          "name": "owner",
          "type": "address"
        },
        {
          "internalType": "address",
          "name": "operator",
          "type": "address"
        }
      ],
      "name": "isApprovedForAll",
      "outputs": [
        {
          "internalType": "bool",
          "name": "",
          "type": "bool"
        }
      ],
      "stateMutability": "view",
      "type": "function"
    },
    {
      "inputs": [],
      "name": "minFee",
      "outputs": [
        {
          "internalType": "uint256",
          "name": "",
          "type": "uint256"
        }
      ],
      "stateMutability": "view",
      "type": "function"
    },
    {
      "inputs": [],
      "name": "name",
      "outputs": [
        {
          "internalType": "string",
          "name": "",
          "type": "string"
        }
      ],
      "stateMutability": "view",
      "type": "function"
    },
    {
      "inputs": [],
      "name": "owner",
      "outputs": [
        {
          "internalType": "address",
          "name": "",
          "type": "address"
        }
      ],
      "stateMutability": "view",
      "type": "function"
    },
    {
      "inputs": [
        {
          "internalType": "uint256",
          "name": "tokenId",
          "type": "uint256"
        }
      ],
      "name": "ownerOf",
      "outputs": [
        {
          "internalType": "address",
          "name": "",
          "type": "address"
        }
      ],
      "stateMutability": "view",
      "type": "function"
    },
    {
      "inputs": [
        {
          "internalType": "address",
          "name": "recipient",
          "type": "address"
        },
        {
          "internalType": "string",
          "name": "metadataURI",
          "type": "string"
        },
        {
          "internalType": "string",
          "name": "message",
          "type": "string"
        }
      ],
      "name": "payToMint",
      "outputs": [
        {
          "internalType": "uint256",
          "name": "",
          "type": "uint256"
        }
      ],
      "stateMutability": "payable",
      "type": "function"
    },
    {
      "inputs": [],
      "name": "renounceOwnership",
      "outputs": [],
      "stateMutability": "nonpayable",
      "type": "function"
    },
    {
      "inputs": [
        {
          "internalType": "address",
          "name": "from",
          "type": "address"
        },
        {
          "internalType": "address",
          "name": "to",
          "type": "address"
        },
        {
          "internalType": "uint256",
          "name": "tokenId",
          "type": "uint256"
        }
      ],
      "name": "safeTransferFrom",
      "outputs": [],
      "stateMutability": "nonpayable",
      "type": "function"
    },
    {
      "inputs": [
        {
          "internalType": "address",
          "name": "from",
          "type": "address"
        },
        {
          "internalType": "address",
          "name": "to",
          "type": "address"
        },
        {
          "internalType": "uint256",
          "name": "tokenId",
          "type": "uint256"
        },
        {
          "internalType": "bytes",
          "name": "_data",
          "type": "bytes"
        }
      ],
      "name": "safeTransferFrom",
      "outputs": [],
      "stateMutability": "nonpayable",
      "type": "function"
    },
    {
      "inputs": [
        {
          "internalType": "address",
          "name": "operator",
          "type": "address"
        },
        {
          "internalType": "bool",
          "name": "approved",
          "type": "bool"
        }
      ],
      "name": "setApprovalForAll",
      "outputs": [],
      "stateMutability": "nonpayable",
      "type": "function"
    },
    {
      "inputs": [
        {
          "internalType": "bytes4",
          "name": "interfaceId",
          "type": "bytes4"
        }
      ],
      "name": "supportsInterface",
      "outputs": [
        {
          "internalType": "bool",
          "name": "",
          "type": "bool"
        }
      ],
      "stateMutability": "view",
      "type": "function"
    },
    {
      "inputs": [],
      "name": "symbol",
      "outputs": [
        {
          "internalType": "string",
          "name": "",
          "type": "string"
        }
      ],
      "stateMutability": "view",
      "type": "function"
    },
    {
      "inputs": [
        {
          "internalType": "uint256",
          "name": "tokenId",
          "type": "uint256"
        }
      ],
      "name": "tokenMsg",
      "outputs": [
        {
          "internalType": "string",
          "name": "",
          "type": "string"
        }
      ],
      "stateMutability": "view",
      "type": "function"
    },
    {
      "inputs": [
        {
          "internalType": "uint256",
          "name": "tokenId",
          "type": "uint256"
        }
      ],
      "name": "tokenOwnerWealth",
      "outputs": [
        {
          "internalType": "uint256",
          "name": "",
          "type": "uint256"
        }
      ],
      "stateMutability": "view",
      "type": "function"
    },
    {
      "inputs": [
        {
          "internalType": "uint256",
          "name": "tokenId",
          "type": "uint256"
        }
      ],
      "name": "tokenTimestamp",
      "outputs": [
        {
          "internalType": "uint256",
          "name": "",
          "type": "uint256"
        }
      ],
      "stateMutability": "view",
      "type": "function"
    },
    {
      "inputs": [
        {
          "internalType": "uint256",
          "name": "",
          "type": "uint256"
        }
      ],
      "name": "tokenToMsg",
      "outputs": [
        {
          "internalType": "string",
          "name": "",
          "type": "string"
        }
      ],
      "stateMutability": "view",
      "type": "function"
    },
    {
      "inputs": [
        {
          "internalType": "uint256",
          "name": "",
          "type": "uint256"
        }
      ],
      "name": "tokenToOwnerWealth",
      "outputs": [
        {
          "internalType": "uint256",
          "name": "",
          "type": "uint256"
        }
      ],
      "stateMutability": "view",
      "type": "function"
    },
    {
      "inputs": [
        {
          "internalType": "uint256",
          "name": "",
          "type": "uint256"
        }
      ],
      "name": "tokenToTimestamp",
      "outputs": [
        {
          "internalType": "uint256",
          "name": "",
          "type": "uint256"
        }
      ],
      "stateMutability": "view",
      "type": "function"
    },
    {
      "inputs": [
        {
          "internalType": "uint256",
          "name": "tokenId",
          "type": "uint256"
        }
      ],
      "name": "tokenURI",
      "outputs": [
        {
          "internalType": "string",
          "name": "",
          "type": "string"
        }
      ],
      "stateMutability": "view",
      "type": "function"
    },
    {
      "inputs": [
        {
          "internalType": "address",
          "name": "from",
          "type": "address"
        },
        {
          "internalType": "address",
          "name": "to",
          "type": "address"
        },
        {
          "internalType": "uint256",
          "name": "tokenId",
          "type": "uint256"
        }
      ],
      "name": "transferFrom",
      "outputs": [],
      "stateMutability": "nonpayable",
      "type": "function"
    },
    {
      "inputs": [
        {
          "internalType": "address",
          "name": "newOwner",
          "type": "address"
        }
      ],
      "name": "transferOwnership",
      "outputs": [],
      "stateMutability": "nonpayable",
      "type": "function"
    },
    {
      "inputs": [
        {
          "internalType": "uint256",
          "name": "newFee",
          "type": "uint256"
        }
      ],
      "name": "updateFee",
      "outputs": [],
      "stateMutability": "nonpayable",
      "type": "function"
    },
    {
      "inputs": [
        {
          "internalType": "uint256",
          "name": "tokenId",
          "type": "uint256"
        },
        {
          "internalType": "string",
          "name": "newMsg",
          "type": "string"
        }
      ],
      "name": "updateMsg",
      "outputs": [],
      "stateMutability": "payable",
      "type": "function"
    },
    {
      "inputs": [
        {
          "internalType": "uint256",
          "name": "",
          "type": "uint256"
        }
      ],
      "name": "updatedAfterMint",
      "outputs": [
        {
          "internalType": "bool",
          "name": "",
          "type": "bool"
        }
      ],
      "stateMutability": "view",
      "type": "function"
    },
    {
      "inputs": [],
      "name": "withdraw",
      "outputs": [],
      "stateMutability": "nonpayable",
      "type": "function"
    }
  ],
  "bytecode": "0x608060405266b1a2bc2ec50000600d553480156200001c57600080fd5b506040518060400160405280601181526020017f426c6f636b636861696e53746f726965730000000000000000000000000000008152506040518060400160405280600381526020017f42535200000000000000000000000000000000000000000000000000000000008152508160009080519060200190620000a1929190620001b1565b508060019080519060200190620000ba929190620001b1565b505050620000dd620000d1620000e360201b60201c565b620000eb60201b60201c565b620002c6565b600033905090565b6000600760009054906101000a900473ffffffffffffffffffffffffffffffffffffffff16905081600760006101000a81548173ffffffffffffffffffffffffffffffffffffffff021916908373ffffffffffffffffffffffffffffffffffffffff1602179055508173ffffffffffffffffffffffffffffffffffffffff168173ffffffffffffffffffffffffffffffffffffffff167f8be0079c531659141344cd1fd0a4f28419497f9722a3daafe3b4186f6b6457e060405160405180910390a35050565b828054620001bf9062000261565b90600052602060002090601f016020900481019282620001e357600085556200022f565b82601f10620001fe57805160ff19168380011785556200022f565b828001600101855582156200022f579182015b828111156200022e57825182559160200191906001019062000211565b5b5090506200023e919062000242565b5090565b5b808211156200025d57600081600090555060010162000243565b5090565b600060028204905060018216806200027a57607f821691505b6020821081141562000291576200029062000297565b5b50919050565b7f4e487b7100000000000000000000000000000000000000000000000000000000600052602260045260246000fd5b613b0780620002d66000396000f3fe6080604052600436106101c25760003560e01c8063715018a6116100f7578063b88d4fde11610095578063dd0e4e0911610064578063dd0e4e0914610682578063e985e9c5146106bf578063eeddb656146106fc578063f2fde38b14610739576101c2565b8063b88d4fde146105a2578063c87b56dd146105cb578063cdab952814610608578063d30c35b414610645576101c2565b806395d89b41116100d157806395d89b41146104f55780639e1d814514610520578063a22cb4651461053c578063b6e14bf014610565576101c2565b8063715018a61461048a5780638da5cb5b146104a15780639012c4a8146104cc576101c2565b806324ec75901161016457806348e4e7671161013e57806348e4e7671461039657806352fa5b9f146103d35780636352211e1461041057806370a082311461044d576101c2565b806324ec75901461032b5780633ccfd60b1461035657806342842e0e1461036d576101c2565b8063081812fc116101a0578063081812fc1461026c578063095ea7b3146102a95780631defad9b146102d257806323b872dd14610302576101c2565b806301ffc9a7146101c757806306fdde031461020457806307adef221461022f575b600080fd5b3480156101d357600080fd5b506101ee60048036038101906101e991906128b7565b610762565b6040516101fb9190612df8565b60405180910390f35b34801561021057600080fd5b50610219610844565b6040516102269190612e13565b60405180910390f35b34801561023b57600080fd5b5061025660048036038101906102519190612909565b6108d6565b6040516102639190612df8565b60405180910390f35b34801561027857600080fd5b50610293600480360381019061028e9190612909565b6108f6565b6040516102a09190612d91565b60405180910390f35b3480156102b557600080fd5b506102d060048036038101906102cb919061287b565b61097b565b005b6102ec60048036038101906102e791906127fc565b610a93565b6040516102f991906130d5565b60405180910390f35b34801561030e57600080fd5b50610329600480360381019061032491906126f6565b610bac565b005b34801561033757600080fd5b50610340610c0c565b60405161034d91906130d5565b60405180910390f35b34801561036257600080fd5b5061036b610c12565b005b34801561037957600080fd5b50610394600480360381019061038f91906126f6565b610d3d565b005b3480156103a257600080fd5b506103bd60048036038101906103b89190612909565b610d5d565b6040516103ca9190612e13565b60405180910390f35b3480156103df57600080fd5b506103fa60048036038101906103f59190612909565b610e02565b60405161040791906130d5565b60405180910390f35b34801561041c57600080fd5b5061043760048036038101906104329190612909565b610e1f565b6040516104449190612d91565b60405180910390f35b34801561045957600080fd5b50610474600480360381019061046f9190612691565b610ed1565b60405161048191906130d5565b60405180910390f35b34801561049657600080fd5b5061049f610f89565b005b3480156104ad57600080fd5b506104b6611011565b6040516104c39190612d91565b60405180910390f35b3480156104d857600080fd5b506104f360048036038101906104ee9190612909565b61103b565b005b34801561050157600080fd5b5061050a6110c1565b6040516105179190612e13565b60405180910390f35b61053a60048036038101906105359190612932565b611153565b005b34801561054857600080fd5b50610563600480360381019061055e91906127c0565b611221565b005b34801561057157600080fd5b5061058c60048036038101906105879190612909565b611237565b60405161059991906130d5565b60405180910390f35b3480156105ae57600080fd5b506105c960048036038101906105c49190612745565b61124f565b005b3480156105d757600080fd5b506105f260048036038101906105ed9190612909565b6112b1565b6040516105ff9190612e13565b60405180910390f35b34801561061457600080fd5b5061062f600480360381019061062a9190612909565b6112c3565b60405161063c9190612e13565b60405180910390f35b34801561065157600080fd5b5061066c60048036038101906106679190612909565b611363565b6040516106799190612df8565b60405180910390f35b34801561068e57600080fd5b506106a960048036038101906106a49190612909565b61138d565b6040516106b691906130d5565b60405180910390f35b3480156106cb57600080fd5b506106e660048036038101906106e191906126ba565b6113a5565b6040516106f39190612df8565b60405180910390f35b34801561070857600080fd5b50610723600480360381019061071e9190612909565b611439565b60405161073091906130d5565b60405180910390f35b34801561074557600080fd5b50610760600480360381019061075b9190612691565b611456565b005b60007f80ac58cd000000000000000000000000000000000000000000000000000000007bffffffffffffffffffffffffffffffffffffffffffffffffffffffff1916827bffffffffffffffffffffffffffffffffffffffffffffffffffffffff1916148061082d57507f5b5e139f000000000000000000000000000000000000000000000000000000007bffffffffffffffffffffffffffffffffffffffffffffffffffffffff1916827bffffffffffffffffffffffffffffffffffffffffffffffffffffffff1916145b8061083d575061083c8261154e565b5b9050919050565b60606000805461085390613336565b80601f016020809104026020016040519081016040528092919081815260200182805461087f90613336565b80156108cc5780601f106108a1576101008083540402835291602001916108cc565b820191906000526020600020905b8154815290600101906020018083116108af57829003601f168201915b5050505050905090565b60096020528060005260406000206000915054906101000a900460ff1681565b6000610901826115b8565b610940576040517f08c379a000000000000000000000000000000000000000000000000000000000815260040161093790613015565b60405180910390fd5b6004600083815260200190815260200160002060009054906101000a900473ffffffffffffffffffffffffffffffffffffffff169050919050565b600061098682610e1f565b90508073ffffffffffffffffffffffffffffffffffffffff168373ffffffffffffffffffffffffffffffffffffffff1614156109f7576040517f08c379a00000000000000000000000000000000000000000000000000000000081526004016109ee90613075565b60405180910390fd5b8073ffffffffffffffffffffffffffffffffffffffff16610a16611624565b73ffffffffffffffffffffffffffffffffffffffff161480610a455750610a4481610a3f611624565b6113a5565b5b610a84576040517f08c379a0000000000000000000000000000000000000000000000000000000008152600401610a7b90612f55565b60405180910390fd5b610a8e838361162c565b505050565b6000600d54341015610ada576040517f08c379a0000000000000000000000000000000000000000000000000000000008152600401610ad190612eb5565b60405180910390fd5b6000610ae660086116e5565b9050610af260086116f3565b610afc8582611709565b610b0681856118e3565b82600a60008381526020019081526020016000209080519060200190610b2d9291906124b5565b5042600b6000838152602001908152602001600020819055508473ffffffffffffffffffffffffffffffffffffffff1631600c60008381526020019081526020016000208190555060006009600083815260200190815260200160002060006101000a81548160ff021916908315150217905550809150509392505050565b610bbd610bb7611624565b82611957565b610bfc576040517f08c379a0000000000000000000000000000000000000000000000000000000008152600401610bf3906130b5565b60405180910390fd5b610c07838383611a35565b505050565b600d5481565b610c1a611624565b73ffffffffffffffffffffffffffffffffffffffff16610c38611011565b73ffffffffffffffffffffffffffffffffffffffff1614610c8e576040517f08c379a0000000000000000000000000000000000000000000000000000000008152600401610c8590613035565b60405180910390fd5b60003373ffffffffffffffffffffffffffffffffffffffff1647604051610cb490612d7c565b60006040518083038185875af1925050503d8060008114610cf1576040519150601f19603f3d011682016040523d82523d6000602084013e610cf6565b606091505b5050905080610d3a576040517f08c379a0000000000000000000000000000000000000000000000000000000008152600401610d3190613095565b60405180910390fd5b50565b610d588383836040518060200160405280600081525061124f565b505050565b6060600a60008381526020019081526020016000208054610d7d90613336565b80601f0160208091040260200160405190810160405280929190818152602001828054610da990613336565b8015610df65780601f10610dcb57610100808354040283529160200191610df6565b820191906000526020600020905b815481529060010190602001808311610dd957829003601f168201915b50505050509050919050565b6000600c6000838152602001908152602001600020549050919050565b6000806002600084815260200190815260200160002060009054906101000a900473ffffffffffffffffffffffffffffffffffffffff169050600073ffffffffffffffffffffffffffffffffffffffff168173ffffffffffffffffffffffffffffffffffffffff161415610ec8576040517f08c379a0000000000000000000000000000000000000000000000000000000008152600401610ebf90612f95565b60405180910390fd5b80915050919050565b60008073ffffffffffffffffffffffffffffffffffffffff168273ffffffffffffffffffffffffffffffffffffffff161415610f42576040517f08c379a0000000000000000000000000000000000000000000000000000000008152600401610f3990612f75565b60405180910390fd5b600360008373ffffffffffffffffffffffffffffffffffffffff1673ffffffffffffffffffffffffffffffffffffffff168152602001908152602001600020549050919050565b610f91611624565b73ffffffffffffffffffffffffffffffffffffffff16610faf611011565b73ffffffffffffffffffffffffffffffffffffffff1614611005576040517f08c379a0000000000000000000000000000000000000000000000000000000008152600401610ffc90613035565b60405180910390fd5b61100f6000611c9c565b565b6000600760009054906101000a900473ffffffffffffffffffffffffffffffffffffffff16905090565b611043611624565b73ffffffffffffffffffffffffffffffffffffffff16611061611011565b73ffffffffffffffffffffffffffffffffffffffff16146110b7576040517f08c379a00000000000000000000000000000000000000000000000000000000081526004016110ae90613035565b60405180910390fd5b80600d8190555050565b6060600180546110d090613336565b80601f01602080910402602001604051908101604052809291908181526020018280546110fc90613336565b80156111495780601f1061111e57610100808354040283529160200191611149565b820191906000526020600020905b81548152906001019060200180831161112c57829003601f168201915b5050505050905090565b3373ffffffffffffffffffffffffffffffffffffffff1661117383610e1f565b73ffffffffffffffffffffffffffffffffffffffff16146111c9576040517f08c379a00000000000000000000000000000000000000000000000000000000081526004016111c090612f15565b60405180910390fd5b60016009600084815260200190815260200160002060006101000a81548160ff02191690831515021790555080600a6000848152602001908152602001600020908051906020019061121c9291906124b5565b505050565b61123361122c611624565b8383611d62565b5050565b600c6020528060005260406000206000915090505481565b61126061125a611624565b83611957565b61129f576040517f08c379a0000000000000000000000000000000000000000000000000000000008152600401611296906130b5565b60405180910390fd5b6112ab84848484611ecf565b50505050565b60606112bc82611f2b565b9050919050565b600a60205280600052604060002060009150905080546112e290613336565b80601f016020809104026020016040519081016040528092919081815260200182805461130e90613336565b801561135b5780601f106113305761010080835404028352916020019161135b565b820191906000526020600020905b81548152906001019060200180831161133e57829003601f168201915b505050505081565b60006009600083815260200190815260200160002060009054906101000a900460ff169050919050565b600b6020528060005260406000206000915090505481565b6000600560008473ffffffffffffffffffffffffffffffffffffffff1673ffffffffffffffffffffffffffffffffffffffff16815260200190815260200160002060008373ffffffffffffffffffffffffffffffffffffffff1673ffffffffffffffffffffffffffffffffffffffff16815260200190815260200160002060009054906101000a900460ff16905092915050565b6000600b6000838152602001908152602001600020549050919050565b61145e611624565b73ffffffffffffffffffffffffffffffffffffffff1661147c611011565b73ffffffffffffffffffffffffffffffffffffffff16146114d2576040517f08c379a00000000000000000000000000000000000000000000000000000000081526004016114c990613035565b60405180910390fd5b600073ffffffffffffffffffffffffffffffffffffffff168173ffffffffffffffffffffffffffffffffffffffff161415611542576040517f08c379a000000000000000000000000000000000000000000000000000000000815260040161153990612e55565b60405180910390fd5b61154b81611c9c565b50565b60007f01ffc9a7000000000000000000000000000000000000000000000000000000007bffffffffffffffffffffffffffffffffffffffffffffffffffffffff1916827bffffffffffffffffffffffffffffffffffffffffffffffffffffffff1916149050919050565b60008073ffffffffffffffffffffffffffffffffffffffff166002600084815260200190815260200160002060009054906101000a900473ffffffffffffffffffffffffffffffffffffffff1673ffffffffffffffffffffffffffffffffffffffff1614159050919050565b600033905090565b816004600083815260200190815260200160002060006101000a81548173ffffffffffffffffffffffffffffffffffffffff021916908373ffffffffffffffffffffffffffffffffffffffff160217905550808273ffffffffffffffffffffffffffffffffffffffff1661169f83610e1f565b73ffffffffffffffffffffffffffffffffffffffff167f8c5be1e5ebec7d5bd14f71427d1e84f3dd0314c0f7b2291e5b200ac8c7c3b92560405160405180910390a45050565b600081600001549050919050565b6001816000016000828254019250508190555050565b600073ffffffffffffffffffffffffffffffffffffffff168273ffffffffffffffffffffffffffffffffffffffff161415611779576040517f08c379a000000000000000000000000000000000000000000000000000000000815260040161177090612fd5565b60405180910390fd5b611782816115b8565b156117c2576040517f08c379a00000000000000000000000000000000000000000000000000000000081526004016117b990612e95565b60405180910390fd5b6117ce6000838361207d565b6001600360008473ffffffffffffffffffffffffffffffffffffffff1673ffffffffffffffffffffffffffffffffffffffff168152602001908152602001600020600082825461181e91906131c5565b92505081905550816002600083815260200190815260200160002060006101000a81548173ffffffffffffffffffffffffffffffffffffffff021916908373ffffffffffffffffffffffffffffffffffffffff160217905550808273ffffffffffffffffffffffffffffffffffffffff16600073ffffffffffffffffffffffffffffffffffffffff167fddf252ad1be2c89b69c2b068fc378daa952ba7f163c4a11628f55a4df523b3ef60405160405180910390a46118df60008383612082565b5050565b6118ec826115b8565b61192b576040517f08c379a000000000000000000000000000000000000000000000000000000000815260040161192290612fb5565b60405180910390fd5b806006600084815260200190815260200160002090805190602001906119529291906124b5565b505050565b6000611962826115b8565b6119a1576040517f08c379a000000000000000000000000000000000000000000000000000000000815260040161199890612f35565b60405180910390fd5b60006119ac83610e1f565b90508073ffffffffffffffffffffffffffffffffffffffff168473ffffffffffffffffffffffffffffffffffffffff161480611a1b57508373ffffffffffffffffffffffffffffffffffffffff16611a03846108f6565b73ffffffffffffffffffffffffffffffffffffffff16145b80611a2c5750611a2b81856113a5565b5b91505092915050565b8273ffffffffffffffffffffffffffffffffffffffff16611a5582610e1f565b73ffffffffffffffffffffffffffffffffffffffff1614611aab576040517f08c379a0000000000000000000000000000000000000000000000000000000008152600401611aa290612e75565b60405180910390fd5b600073ffffffffffffffffffffffffffffffffffffffff168273ffffffffffffffffffffffffffffffffffffffff161415611b1b576040517f08c379a0000000000000000000000000000000000000000000000000000000008152600401611b1290612ed5565b60405180910390fd5b611b2683838361207d565b611b3160008261162c565b6001600360008573ffffffffffffffffffffffffffffffffffffffff1673ffffffffffffffffffffffffffffffffffffffff1681526020019081526020016000206000828254611b81919061324c565b925050819055506001600360008473ffffffffffffffffffffffffffffffffffffffff1673ffffffffffffffffffffffffffffffffffffffff1681526020019081526020016000206000828254611bd891906131c5565b92505081905550816002600083815260200190815260200160002060006101000a81548173ffffffffffffffffffffffffffffffffffffffff021916908373ffffffffffffffffffffffffffffffffffffffff160217905550808273ffffffffffffffffffffffffffffffffffffffff168473ffffffffffffffffffffffffffffffffffffffff167fddf252ad1be2c89b69c2b068fc378daa952ba7f163c4a11628f55a4df523b3ef60405160405180910390a4611c97838383612082565b505050565b6000600760009054906101000a900473ffffffffffffffffffffffffffffffffffffffff16905081600760006101000a81548173ffffffffffffffffffffffffffffffffffffffff021916908373ffffffffffffffffffffffffffffffffffffffff1602179055508173ffffffffffffffffffffffffffffffffffffffff168173ffffffffffffffffffffffffffffffffffffffff167f8be0079c531659141344cd1fd0a4f28419497f9722a3daafe3b4186f6b6457e060405160405180910390a35050565b8173ffffffffffffffffffffffffffffffffffffffff168373ffffffffffffffffffffffffffffffffffffffff161415611dd1576040517f08c379a0000000000000000000000000000000000000000000000000000000008152600401611dc890612ef5565b60405180910390fd5b80600560008573ffffffffffffffffffffffffffffffffffffffff1673ffffffffffffffffffffffffffffffffffffffff16815260200190815260200160002060008473ffffffffffffffffffffffffffffffffffffffff1673ffffffffffffffffffffffffffffffffffffffff16815260200190815260200160002060006101000a81548160ff0219169083151502179055508173ffffffffffffffffffffffffffffffffffffffff168373ffffffffffffffffffffffffffffffffffffffff167f17307eab39ab6107e8899845ad3d59bd9653f200f220920489ca2b5937696c3183604051611ec29190612df8565b60405180910390a3505050565b611eda848484611a35565b611ee684848484612087565b611f25576040517f08c379a0000000000000000000000000000000000000000000000000000000008152600401611f1c90612e35565b60405180910390fd5b50505050565b6060611f36826115b8565b611f75576040517f08c379a0000000000000000000000000000000000000000000000000000000008152600401611f6c90612ff5565b60405180910390fd5b6000600660008481526020019081526020016000208054611f9590613336565b80601f0160208091040260200160405190810160405280929190818152602001828054611fc190613336565b801561200e5780601f10611fe35761010080835404028352916020019161200e565b820191906000526020600020905b815481529060010190602001808311611ff157829003601f168201915b50505050509050600061201f61221e565b9050600081511415612035578192505050612078565b60008251111561206a578082604051602001612052929190612d58565b60405160208183030381529060405292505050612078565b6120738461223e565b925050505b919050565b505050565b505050565b60006120a88473ffffffffffffffffffffffffffffffffffffffff166122e5565b15612211578373ffffffffffffffffffffffffffffffffffffffff1663150b7a026120d1611624565b8786866040518563ffffffff1660e01b81526004016120f39493929190612dac565b602060405180830381600087803b15801561210d57600080fd5b505af192505050801561213e57506040513d601f19601f8201168201806040525081019061213b91906128e0565b60015b6121c1573d806000811461216e576040519150601f19603f3d011682016040523d82523d6000602084013e612173565b606091505b506000815114156121b9576040517f08c379a00000000000000000000000000000000000000000000000000000000081526004016121b090612e35565b60405180910390fd5b805181602001fd5b63150b7a0260e01b7bffffffffffffffffffffffffffffffffffffffffffffffffffffffff1916817bffffffffffffffffffffffffffffffffffffffffffffffffffffffff191614915050612216565b600190505b949350505050565b6060604051806060016040528060218152602001613ab160219139905090565b6060612249826115b8565b612288576040517f08c379a000000000000000000000000000000000000000000000000000000000815260040161227f90613055565b60405180910390fd5b600061229261221e565b905060008151116122b257604051806020016040528060008152506122dd565b806122bc84612308565b6040516020016122cd929190612d58565b6040516020818303038152906040525b915050919050565b6000808273ffffffffffffffffffffffffffffffffffffffff163b119050919050565b60606000821415612350576040518060400160405280600181526020017f300000000000000000000000000000000000000000000000000000000000000081525090506124b0565b600082905060005b6000821461238257808061236b90613399565b915050600a8261237b919061321b565b9150612358565b60008167ffffffffffffffff8111156123c4577f4e487b7100000000000000000000000000000000000000000000000000000000600052604160045260246000fd5b6040519080825280601f01601f1916602001820160405280156123f65781602001600182028036833780820191505090505b5090505b600085146124a95760018261240f919061324c565b9150600a8561241e91906133e2565b603061242a91906131c5565b60f81b818381518110612466577f4e487b7100000000000000000000000000000000000000000000000000000000600052603260045260246000fd5b60200101907effffffffffffffffffffffffffffffffffffffffffffffffffffffffffffff1916908160001a905350600a856124a2919061321b565b94506123fa565b8093505050505b919050565b8280546124c190613336565b90600052602060002090601f0160209004810192826124e3576000855561252a565b82601f106124fc57805160ff191683800117855561252a565b8280016001018555821561252a579182015b8281111561252957825182559160200191906001019061250e565b5b509050612537919061253b565b5090565b5b8082111561255457600081600090555060010161253c565b5090565b600061256b61256684613115565b6130f0565b90508281526020810184848401111561258357600080fd5b61258e8482856132f4565b509392505050565b60006125a96125a484613146565b6130f0565b9050828152602081018484840111156125c157600080fd5b6125cc8482856132f4565b509392505050565b6000813590506125e381613a54565b92915050565b6000813590506125f881613a6b565b92915050565b60008135905061260d81613a82565b92915050565b60008151905061262281613a82565b92915050565b600082601f83011261263957600080fd5b8135612649848260208601612558565b91505092915050565b600082601f83011261266357600080fd5b8135612673848260208601612596565b91505092915050565b60008135905061268b81613a99565b92915050565b6000602082840312156126a357600080fd5b60006126b1848285016125d4565b91505092915050565b600080604083850312156126cd57600080fd5b60006126db858286016125d4565b92505060206126ec858286016125d4565b9150509250929050565b60008060006060848603121561270b57600080fd5b6000612719868287016125d4565b935050602061272a868287016125d4565b925050604061273b8682870161267c565b9150509250925092565b6000806000806080858703121561275b57600080fd5b6000612769878288016125d4565b945050602061277a878288016125d4565b935050604061278b8782880161267c565b925050606085013567ffffffffffffffff8111156127a857600080fd5b6127b487828801612628565b91505092959194509250565b600080604083850312156127d357600080fd5b60006127e1858286016125d4565b92505060206127f2858286016125e9565b9150509250929050565b60008060006060848603121561281157600080fd5b600061281f868287016125d4565b935050602084013567ffffffffffffffff81111561283c57600080fd5b61284886828701612652565b925050604084013567ffffffffffffffff81111561286557600080fd5b61287186828701612652565b9150509250925092565b6000806040838503121561288e57600080fd5b600061289c858286016125d4565b92505060206128ad8582860161267c565b9150509250929050565b6000602082840312156128c957600080fd5b60006128d7848285016125fe565b91505092915050565b6000602082840312156128f257600080fd5b600061290084828501612613565b91505092915050565b60006020828403121561291b57600080fd5b60006129298482850161267c565b91505092915050565b6000806040838503121561294557600080fd5b60006129538582860161267c565b925050602083013567ffffffffffffffff81111561297057600080fd5b61297c85828601612652565b9150509250929050565b61298f81613280565b82525050565b61299e81613292565b82525050565b60006129af82613177565b6129b9818561318d565b93506129c9818560208601613303565b6129d2816134cf565b840191505092915050565b60006129e882613182565b6129f281856131a9565b9350612a02818560208601613303565b612a0b816134cf565b840191505092915050565b6000612a2182613182565b612a2b81856131ba565b9350612a3b818560208601613303565b80840191505092915050565b6000612a546032836131a9565b9150612a5f826134e0565b604082019050919050565b6000612a776026836131a9565b9150612a828261352f565b604082019050919050565b6000612a9a6025836131a9565b9150612aa58261357e565b604082019050919050565b6000612abd601c836131a9565b9150612ac8826135cd565b602082019050919050565b6000612ae06010836131a9565b9150612aeb826135f6565b602082019050919050565b6000612b036024836131a9565b9150612b0e8261361f565b604082019050919050565b6000612b266019836131a9565b9150612b318261366e565b602082019050919050565b6000612b496015836131a9565b9150612b5482613697565b602082019050919050565b6000612b6c602c836131a9565b9150612b77826136c0565b604082019050919050565b6000612b8f6038836131a9565b9150612b9a8261370f565b604082019050919050565b6000612bb2602a836131a9565b9150612bbd8261375e565b604082019050919050565b6000612bd56029836131a9565b9150612be0826137ad565b604082019050919050565b6000612bf8602e836131a9565b9150612c03826137fc565b604082019050919050565b6000612c1b6020836131a9565b9150612c268261384b565b602082019050919050565b6000612c3e6031836131a9565b9150612c4982613874565b604082019050919050565b6000612c61602c836131a9565b9150612c6c826138c3565b604082019050919050565b6000612c846020836131a9565b9150612c8f82613912565b602082019050919050565b6000612ca7602f836131a9565b9150612cb28261393b565b604082019050919050565b6000612cca6021836131a9565b9150612cd58261398a565b604082019050919050565b6000612ced60008361319e565b9150612cf8826139d9565b600082019050919050565b6000612d106010836131a9565b9150612d1b826139dc565b602082019050919050565b6000612d336031836131a9565b9150612d3e82613a05565b604082019050919050565b612d52816132ea565b82525050565b6000612d648285612a16565b9150612d708284612a16565b91508190509392505050565b6000612d8782612ce0565b9150819050919050565b6000602082019050612da66000830184612986565b92915050565b6000608082019050612dc16000830187612986565b612dce6020830186612986565b612ddb6040830185612d49565b8181036060830152612ded81846129a4565b905095945050505050565b6000602082019050612e0d6000830184612995565b92915050565b60006020820190508181036000830152612e2d81846129dd565b905092915050565b60006020820190508181036000830152612e4e81612a47565b9050919050565b60006020820190508181036000830152612e6e81612a6a565b9050919050565b60006020820190508181036000830152612e8e81612a8d565b9050919050565b60006020820190508181036000830152612eae81612ab0565b9050919050565b60006020820190508181036000830152612ece81612ad3565b9050919050565b60006020820190508181036000830152612eee81612af6565b9050919050565b60006020820190508181036000830152612f0e81612b19565b9050919050565b60006020820190508181036000830152612f2e81612b3c565b9050919050565b60006020820190508181036000830152612f4e81612b5f565b9050919050565b60006020820190508181036000830152612f6e81612b82565b9050919050565b60006020820190508181036000830152612f8e81612ba5565b9050919050565b60006020820190508181036000830152612fae81612bc8565b9050919050565b60006020820190508181036000830152612fce81612beb565b9050919050565b60006020820190508181036000830152612fee81612c0e565b9050919050565b6000602082019050818103600083015261300e81612c31565b9050919050565b6000602082019050818103600083015261302e81612c54565b9050919050565b6000602082019050818103600083015261304e81612c77565b9050919050565b6000602082019050818103600083015261306e81612c9a565b9050919050565b6000602082019050818103600083015261308e81612cbd565b9050919050565b600060208201905081810360008301526130ae81612d03565b9050919050565b600060208201905081810360008301526130ce81612d26565b9050919050565b60006020820190506130ea6000830184612d49565b92915050565b60006130fa61310b565b90506131068282613368565b919050565b6000604051905090565b600067ffffffffffffffff8211156131305761312f6134a0565b5b613139826134cf565b9050602081019050919050565b600067ffffffffffffffff821115613161576131606134a0565b5b61316a826134cf565b9050602081019050919050565b600081519050919050565b600081519050919050565b600082825260208201905092915050565b600081905092915050565b600082825260208201905092915050565b600081905092915050565b60006131d0826132ea565b91506131db836132ea565b9250827fffffffffffffffffffffffffffffffffffffffffffffffffffffffffffffffff038211156132105761320f613413565b5b828201905092915050565b6000613226826132ea565b9150613231836132ea565b92508261324157613240613442565b5b828204905092915050565b6000613257826132ea565b9150613262836132ea565b92508282101561327557613274613413565b5b828203905092915050565b600061328b826132ca565b9050919050565b60008115159050919050565b60007fffffffff0000000000000000000000000000000000000000000000000000000082169050919050565b600073ffffffffffffffffffffffffffffffffffffffff82169050919050565b6000819050919050565b82818337600083830152505050565b60005b83811015613321578082015181840152602081019050613306565b83811115613330576000848401525b50505050565b6000600282049050600182168061334e57607f821691505b6020821081141561336257613361613471565b5b50919050565b613371826134cf565b810181811067ffffffffffffffff821117156133905761338f6134a0565b5b80604052505050565b60006133a4826132ea565b91507fffffffffffffffffffffffffffffffffffffffffffffffffffffffffffffffff8214156133d7576133d6613413565b5b600182019050919050565b60006133ed826132ea565b91506133f8836132ea565b92508261340857613407613442565b5b828206905092915050565b7f4e487b7100000000000000000000000000000000000000000000000000000000600052601160045260246000fd5b7f4e487b7100000000000000000000000000000000000000000000000000000000600052601260045260246000fd5b7f4e487b7100000000000000000000000000000000000000000000000000000000600052602260045260246000fd5b7f4e487b7100000000000000000000000000000000000000000000000000000000600052604160045260246000fd5b6000601f19601f8301169050919050565b7f4552433732313a207472616e7366657220746f206e6f6e20455243373231526560008201527f63656976657220696d706c656d656e7465720000000000000000000000000000602082015250565b7f4f776e61626c653a206e6577206f776e657220697320746865207a65726f206160008201527f6464726573730000000000000000000000000000000000000000000000000000602082015250565b7f4552433732313a207472616e736665722066726f6d20696e636f72726563742060008201527f6f776e6572000000000000000000000000000000000000000000000000000000602082015250565b7f4552433732313a20746f6b656e20616c7265616479206d696e74656400000000600082015250565b7f4e6f7420656e6f7567682066756e647300000000000000000000000000000000600082015250565b7f4552433732313a207472616e7366657220746f20746865207a65726f2061646460008201527f7265737300000000000000000000000000000000000000000000000000000000602082015250565b7f4552433732313a20617070726f766520746f2063616c6c657200000000000000600082015250565b7f596f7520617265206e6f7420746865206f776e65720000000000000000000000600082015250565b7f4552433732313a206f70657261746f7220717565727920666f72206e6f6e657860008201527f697374656e7420746f6b656e0000000000000000000000000000000000000000602082015250565b7f4552433732313a20617070726f76652063616c6c6572206973206e6f74206f7760008201527f6e6572206e6f7220617070726f76656420666f7220616c6c0000000000000000602082015250565b7f4552433732313a2062616c616e636520717565727920666f7220746865207a6560008201527f726f206164647265737300000000000000000000000000000000000000000000602082015250565b7f4552433732313a206f776e657220717565727920666f72206e6f6e657869737460008201527f656e7420746f6b656e0000000000000000000000000000000000000000000000602082015250565b7f45524337323155524953746f726167653a2055524920736574206f66206e6f6e60008201527f6578697374656e7420746f6b656e000000000000000000000000000000000000602082015250565b7f4552433732313a206d696e7420746f20746865207a65726f2061646472657373600082015250565b7f45524337323155524953746f726167653a2055524920717565727920666f722060008201527f6e6f6e6578697374656e7420746f6b656e000000000000000000000000000000602082015250565b7f4552433732313a20617070726f76656420717565727920666f72206e6f6e657860008201527f697374656e7420746f6b656e0000000000000000000000000000000000000000602082015250565b7f4f776e61626c653a2063616c6c6572206973206e6f7420746865206f776e6572600082015250565b7f4552433732314d657461646174613a2055524920717565727920666f72206e6f60008201527f6e6578697374656e7420746f6b656e0000000000000000000000000000000000602082015250565b7f4552433732313a20617070726f76616c20746f2063757272656e74206f776e6560008201527f7200000000000000000000000000000000000000000000000000000000000000602082015250565b50565b7f5472616e73666572206661696c65642e00000000000000000000000000000000600082015250565b7f4552433732313a207472616e736665722063616c6c6572206973206e6f74206f60008201527f776e6572206e6f7220617070726f766564000000000000000000000000000000602082015250565b613a5d81613280565b8114613a6857600080fd5b50565b613a7481613292565b8114613a7f57600080fd5b50565b613a8b8161329e565b8114613a9657600080fd5b50565b613aa2816132ea565b8114613aad57600080fd5b5056fe68747470733a2f2f626c6f636b636861696e73746f726965732e696f2f6e66742fa2646970667358221220a2739ed5ee9aafbebd5af4f97c5b771b8c38656f78ca5862cac0043279438c3464736f6c63430008040033",
  "linkReferences": {},
  "deployedLinkReferences": {}
}